{
  "_format": "hh-sol-artifact-1",
  "contractName": "Raffle",
  "sourceName": "contracts/Raffle.sol",
  "abi": [
    {
      "inputs": [
        {
          "internalType": "address",
          "name": "vrfCoordinatorV2",
          "type": "address"
        },
        {
          "internalType": "uint256",
          "name": "entranceFee",
          "type": "uint256"
        },
        {
          "internalType": "bytes32",
          "name": "gasLane",
          "type": "bytes32"
        },
        {
          "internalType": "uint64",
          "name": "subscriptionId",
          "type": "uint64"
        },
        {
          "internalType": "uint32",
          "name": "callbackGasLimit",
          "type": "uint32"
        },
        {
          "internalType": "uint256",
          "name": "interval",
          "type": "uint256"
        }
      ],
      "stateMutability": "nonpayable",
      "type": "constructor"
    },
    {
      "inputs": [
        {
          "internalType": "address",
          "name": "have",
          "type": "address"
        },
        {
          "internalType": "address",
          "name": "want",
          "type": "address"
        }
      ],
      "name": "OnlyCoordinatorCanFulfill",
      "type": "error"
    },
    {
      "inputs": [],
      "name": "Raffle__NotEnoughETHEntered",
      "type": "error"
    },
    {
      "inputs": [],
      "name": "Raffle__NotOpen",
      "type": "error"
    },
    {
      "inputs": [],
      "name": "Raffle__TransferFailed",
      "type": "error"
    },
    {
      "inputs": [
        {
          "internalType": "uint256",
          "name": "currentBalance",
          "type": "uint256"
        },
        {
          "internalType": "uint256",
          "name": "numPlayers",
          "type": "uint256"
        },
        {
          "internalType": "uint256",
          "name": "raffleState",
          "type": "uint256"
        }
      ],
      "name": "Raffle__UpkeepNotNeeded",
      "type": "error"
    },
    {
      "anonymous": false,
      "inputs": [
        {
          "indexed": true,
          "internalType": "address",
          "name": "player",
          "type": "address"
        }
      ],
      "name": "RaffleEntered",
      "type": "event"
    },
    {
      "anonymous": false,
      "inputs": [
        {
          "indexed": true,
          "internalType": "uint256",
          "name": "requestId",
          "type": "uint256"
        }
      ],
      "name": "RequestedRaffleWinner",
      "type": "event"
    },
    {
      "anonymous": false,
      "inputs": [
        {
          "indexed": false,
          "internalType": "address",
          "name": "winner",
          "type": "address"
        }
      ],
      "name": "WinnerPicked",
      "type": "event"
    },
    {
      "inputs": [
        {
          "internalType": "bytes",
          "name": "",
          "type": "bytes"
        }
      ],
      "name": "checkUpkeep",
      "outputs": [
        {
          "internalType": "bool",
          "name": "upkeepNeeded",
          "type": "bool"
        },
        {
          "internalType": "bytes",
          "name": "",
          "type": "bytes"
        }
      ],
      "stateMutability": "nonpayable",
      "type": "function"
    },
    {
      "inputs": [],
      "name": "enterRaffle",
      "outputs": [],
      "stateMutability": "payable",
      "type": "function"
    },
    {
      "inputs": [],
      "name": "getConfirmations",
      "outputs": [
        {
          "internalType": "uint256",
          "name": "",
          "type": "uint256"
        }
      ],
      "stateMutability": "pure",
      "type": "function"
    },
    {
      "inputs": [],
      "name": "getEntranceFees",
      "outputs": [
        {
          "internalType": "uint256",
          "name": "",
          "type": "uint256"
        }
      ],
      "stateMutability": "view",
      "type": "function"
    },
    {
      "inputs": [],
      "name": "getInterval",
      "outputs": [
        {
          "internalType": "uint256",
          "name": "",
          "type": "uint256"
        }
      ],
      "stateMutability": "view",
      "type": "function"
    },
    {
      "inputs": [],
      "name": "getLatestTimeStamp",
      "outputs": [
        {
          "internalType": "uint256",
          "name": "",
          "type": "uint256"
        }
      ],
      "stateMutability": "view",
      "type": "function"
    },
    {
      "inputs": [],
      "name": "getNumOfPlayers",
      "outputs": [
        {
          "internalType": "uint256",
          "name": "",
          "type": "uint256"
        }
      ],
      "stateMutability": "view",
      "type": "function"
    },
    {
      "inputs": [],
      "name": "getNumWords",
      "outputs": [
        {
          "internalType": "uint256",
          "name": "",
          "type": "uint256"
        }
      ],
      "stateMutability": "pure",
      "type": "function"
    },
    {
      "inputs": [
        {
          "internalType": "uint256",
          "name": "index",
          "type": "uint256"
        }
      ],
      "name": "getPlayer",
      "outputs": [
        {
          "internalType": "address",
          "name": "",
          "type": "address"
        }
      ],
      "stateMutability": "view",
      "type": "function"
    },
    {
      "inputs": [],
      "name": "getRaffleState",
      "outputs": [
        {
          "internalType": "enum Raffle.RaffleState",
          "name": "",
          "type": "uint8"
        }
      ],
      "stateMutability": "view",
      "type": "function"
    },
    {
      "inputs": [],
      "name": "getRecentWinner",
      "outputs": [
        {
          "internalType": "address",
          "name": "",
          "type": "address"
        }
      ],
      "stateMutability": "view",
      "type": "function"
    },
    {
      "inputs": [
        {
          "internalType": "bytes",
          "name": "",
          "type": "bytes"
        }
      ],
      "name": "performUpkeep",
      "outputs": [],
      "stateMutability": "nonpayable",
      "type": "function"
    },
    {
      "inputs": [
        {
          "internalType": "uint256",
          "name": "requestId",
          "type": "uint256"
        },
        {
          "internalType": "uint256[]",
          "name": "randomWords",
          "type": "uint256[]"
        }
      ],
      "name": "rawFulfillRandomWords",
      "outputs": [],
      "stateMutability": "nonpayable",
      "type": "function"
    }
  ],
  "bytecode": "0x6101606040523480156200001257600080fd5b506040516200187038038062001870833981810160405281019062000038919062000294565b858073ffffffffffffffffffffffffffffffffffffffff1660808173ffffffffffffffffffffffffffffffffffffffff1681525050508460a081815250508573ffffffffffffffffffffffffffffffffffffffff1660c08173ffffffffffffffffffffffffffffffffffffffff16815250508360e081815250508267ffffffffffffffff166101008167ffffffffffffffff16815250508163ffffffff166101208163ffffffff16815250506000600160146101000a81548160ff021916908360018111156200010d576200010c62000330565b5b0217905550426002819055508061014081815250505050505050506200035f565b600080fd5b600073ffffffffffffffffffffffffffffffffffffffff82169050919050565b6000620001608262000133565b9050919050565b620001728162000153565b81146200017e57600080fd5b50565b600081519050620001928162000167565b92915050565b6000819050919050565b620001ad8162000198565b8114620001b957600080fd5b50565b600081519050620001cd81620001a2565b92915050565b6000819050919050565b620001e881620001d3565b8114620001f457600080fd5b50565b6000815190506200020881620001dd565b92915050565b600067ffffffffffffffff82169050919050565b6200022d816200020e565b81146200023957600080fd5b50565b6000815190506200024d8162000222565b92915050565b600063ffffffff82169050919050565b6200026e8162000253565b81146200027a57600080fd5b50565b6000815190506200028e8162000263565b92915050565b60008060008060008060c08789031215620002b457620002b36200012e565b5b6000620002c489828a0162000181565b9650506020620002d789828a01620001bc565b9550506040620002ea89828a01620001f7565b9450506060620002fd89828a016200023c565b93505060806200031089828a016200027d565b92505060a06200032389828a01620001bc565b9150509295509295509295565b7f4e487b7100000000000000000000000000000000000000000000000000000000600052602160045260246000fd5b60805160a05160c05160e0516101005161012051610140516114a1620003cf600039600081816107e601526108540152600061067d0152600061065a01526000610639015260006105fd0152600081816103cf015261076401526000818161030f015261036301526114a16000f3fe6080604052600436106100c25760003560e01c80634a26d4f41161007f5780636e04ff0d116100595780636e04ff0d1461022557806391ad27b414610263578063c361ce831461028e578063e55ae4e8146102b9576100c2565b80634a26d4f4146101a457806353a2c19a146101cf578063565429de146101fa576100c2565b8063115cbaf5146100c75780631fe543e3146100f25780632cfcc5391461011b578063320229eb146101255780634585e33b14610150578063473f1ddc14610179575b600080fd5b3480156100d357600080fd5b506100dc6102f6565b6040516100e99190610c0f565b60405180910390f35b3480156100fe57600080fd5b5061011960048036038101906101149190610dcd565b61030d565b005b6101236103cd565b005b34801561013157600080fd5b5061013a61053c565b6040516101479190610e38565b60405180910390f35b34801561015c57600080fd5b5061017760048036038101906101729190610eae565b610546565b005b34801561018557600080fd5b5061018e610736565b60405161019b9190610f3c565b60405180910390f35b3480156101b057600080fd5b506101b9610760565b6040516101c69190610e38565b60405180910390f35b3480156101db57600080fd5b506101e4610788565b6040516101f19190610e38565b60405180910390f35b34801561020657600080fd5b5061020f610797565b60405161021c9190610e38565b60405180910390f35b34801561023157600080fd5b5061024c6004803603810190610247919061100c565b6107a3565b60405161025a9291906110ef565b60405180910390f35b34801561026f57600080fd5b50610278610850565b6040516102859190610e38565b60405180910390f35b34801561029a57600080fd5b506102a3610878565b6040516102b09190610e38565b60405180910390f35b3480156102c557600080fd5b506102e060048036038101906102db919061111f565b610885565b6040516102ed9190610f3c565b60405180910390f35b6000600160149054906101000a900460ff16905090565b7f000000000000000000000000000000000000000000000000000000000000000073ffffffffffffffffffffffffffffffffffffffff163373ffffffffffffffffffffffffffffffffffffffff16146103bf57337f00000000000000000000000000000000000000000000000000000000000000006040517f1cf993f40000000000000000000000000000000000000000000000000000000081526004016103b692919061114c565b60405180910390fd5b6103c982826108cc565b5050565b7f0000000000000000000000000000000000000000000000000000000000000000341015610427576040517fbd4e069500000000000000000000000000000000000000000000000000000000815260040160405180910390fd5b6000600181111561043b5761043a610b98565b5b600160149054906101000a900460ff16600181111561045d5761045c610b98565b5b14610494576040517f1425571c00000000000000000000000000000000000000000000000000000000815260040160405180910390fd5b6000339080600181540180825580915050600190039060005260206000200160009091909190916101000a81548173ffffffffffffffffffffffffffffffffffffffff021916908373ffffffffffffffffffffffffffffffffffffffff1602179055503373ffffffffffffffffffffffffffffffffffffffff167f634f3211e3a4e43fee5a21ad9f87ca153b300fc78b1c557a2057dbe9c63bcb4760405160405180910390a2565b6000600254905090565b6000610560604051806020016040528060008152506107a3565b509050806105cf5747600080549050600160149054906101000a900460ff16600181111561059157610590610b98565b5b6040517f584327aa0000000000000000000000000000000000000000000000000000000081526004016105c693929190611175565b60405180910390fd5b60018060146101000a81548160ff021916908360018111156105f4576105f3610b98565b5b021790555060007f000000000000000000000000000000000000000000000000000000000000000073ffffffffffffffffffffffffffffffffffffffff16635d3b1d307f00000000000000000000000000000000000000000000000000000000000000007f000000000000000000000000000000000000000000000000000000000000000060037f000000000000000000000000000000000000000000000000000000000000000060016040518663ffffffff1660e01b81526004016106be959493929190611224565b6020604051808303816000875af11580156106dd573d6000803e3d6000fd5b505050506040513d601f19601f82011682018060405250810190610701919061128c565b9050807fcd6e45c8998311cab7e9d4385596cac867e20a0587194b954fa3a731c93ce78b60405160405180910390a250505050565b6000600160009054906101000a900473ffffffffffffffffffffffffffffffffffffffff16905090565b60007f0000000000000000000000000000000000000000000000000000000000000000905090565b6000600163ffffffff16905090565b60008080549050905090565b600060606000600160149054906101000a900460ff1660018111156107cb576107ca610b98565b5b600060018111156107df576107de610b98565b5b14905060007f00000000000000000000000000000000000000000000000000000000000000006002544261081391906112e8565b119050600080600080549050119050600080471190508380156108335750825b801561083c5750805b80156108455750815b955050505050915091565b60007f0000000000000000000000000000000000000000000000000000000000000000905090565b6000600361ffff16905090565b600080828154811061089a5761089961131c565b5b9060005260206000200160009054906101000a900473ffffffffffffffffffffffffffffffffffffffff169050919050565b60008080549050826000815181106108e7576108e661131c565b5b60200260200101516108f9919061137a565b905060008082815481106109105761090f61131c565b5b9060005260206000200160009054906101000a900473ffffffffffffffffffffffffffffffffffffffff16905080600160006101000a81548173ffffffffffffffffffffffffffffffffffffffff021916908373ffffffffffffffffffffffffffffffffffffffff1602179055506000600160146101000a81548160ff021916908360018111156109a4576109a3610b98565b5b0217905550600067ffffffffffffffff8111156109c4576109c3610c8a565b5b6040519080825280602002602001820160405280156109f25781602001602082028036833780820191505090505b5060009080519060200190610a08929190610af1565b504260028190555060008173ffffffffffffffffffffffffffffffffffffffff1647604051610a36906113dc565b60006040518083038185875af1925050503d8060008114610a73576040519150601f19603f3d011682016040523d82523d6000602084013e610a78565b606091505b5050905080610ab3576040517fa1d04b3900000000000000000000000000000000000000000000000000000000815260040160405180910390fd5b7f5b690ec4a06fe979403046eaeea5b3ce38524683c3001f662c8b5a829632f7df82604051610ae29190611450565b60405180910390a15050505050565b828054828255906000526020600020908101928215610b6a579160200282015b82811115610b695782518260006101000a81548173ffffffffffffffffffffffffffffffffffffffff021916908373ffffffffffffffffffffffffffffffffffffffff16021790555091602001919060010190610b11565b5b509050610b779190610b7b565b5090565b5b80821115610b94576000816000905550600101610b7c565b5090565b7f4e487b7100000000000000000000000000000000000000000000000000000000600052602160045260246000fd5b60028110610bd857610bd7610b98565b5b50565b6000819050610be982610bc7565b919050565b6000610bf982610bdb565b9050919050565b610c0981610bee565b82525050565b6000602082019050610c246000830184610c00565b92915050565b6000604051905090565b600080fd5b600080fd5b6000819050919050565b610c5181610c3e565b8114610c5c57600080fd5b50565b600081359050610c6e81610c48565b92915050565b600080fd5b6000601f19601f8301169050919050565b7f4e487b7100000000000000000000000000000000000000000000000000000000600052604160045260246000fd5b610cc282610c79565b810181811067ffffffffffffffff82111715610ce157610ce0610c8a565b5b80604052505050565b6000610cf4610c2a565b9050610d008282610cb9565b919050565b600067ffffffffffffffff821115610d2057610d1f610c8a565b5b602082029050602081019050919050565b600080fd5b6000610d49610d4484610d05565b610cea565b90508083825260208201905060208402830185811115610d6c57610d6b610d31565b5b835b81811015610d955780610d818882610c5f565b845260208401935050602081019050610d6e565b5050509392505050565b600082601f830112610db457610db3610c74565b5b8135610dc4848260208601610d36565b91505092915050565b60008060408385031215610de457610de3610c34565b5b6000610df285828601610c5f565b925050602083013567ffffffffffffffff811115610e1357610e12610c39565b5b610e1f85828601610d9f565b9150509250929050565b610e3281610c3e565b82525050565b6000602082019050610e4d6000830184610e29565b92915050565b600080fd5b60008083601f840112610e6e57610e6d610c74565b5b8235905067ffffffffffffffff811115610e8b57610e8a610e53565b5b602083019150836001820283011115610ea757610ea6610d31565b5b9250929050565b60008060208385031215610ec557610ec4610c34565b5b600083013567ffffffffffffffff811115610ee357610ee2610c39565b5b610eef85828601610e58565b92509250509250929050565b600073ffffffffffffffffffffffffffffffffffffffff82169050919050565b6000610f2682610efb565b9050919050565b610f3681610f1b565b82525050565b6000602082019050610f516000830184610f2d565b92915050565b600080fd5b600067ffffffffffffffff821115610f7757610f76610c8a565b5b610f8082610c79565b9050602081019050919050565b82818337600083830152505050565b6000610faf610faa84610f5c565b610cea565b905082815260208101848484011115610fcb57610fca610f57565b5b610fd6848285610f8d565b509392505050565b600082601f830112610ff357610ff2610c74565b5b8135611003848260208601610f9c565b91505092915050565b60006020828403121561102257611021610c34565b5b600082013567ffffffffffffffff8111156110405761103f610c39565b5b61104c84828501610fde565b91505092915050565b60008115159050919050565b61106a81611055565b82525050565b600081519050919050565b600082825260208201905092915050565b60005b838110156110aa57808201518184015260208101905061108f565b60008484015250505050565b60006110c182611070565b6110cb818561107b565b93506110db81856020860161108c565b6110e481610c79565b840191505092915050565b60006040820190506111046000830185611061565b818103602083015261111681846110b6565b90509392505050565b60006020828403121561113557611134610c34565b5b600061114384828501610c5f565b91505092915050565b60006040820190506111616000830185610f2d565b61116e6020830184610f2d565b9392505050565b600060608201905061118a6000830186610e29565b6111976020830185610e29565b6111a46040830184610e29565b949350505050565b6000819050919050565b6111bf816111ac565b82525050565b600067ffffffffffffffff82169050919050565b6111e2816111c5565b82525050565b600061ffff82169050919050565b6111ff816111e8565b82525050565b600063ffffffff82169050919050565b61121e81611205565b82525050565b600060a08201905061123960008301886111b6565b61124660208301876111d9565b61125360408301866111f6565b6112606060830185611215565b61126d6080830184611215565b9695505050505050565b60008151905061128681610c48565b92915050565b6000602082840312156112a2576112a1610c34565b5b60006112b084828501611277565b91505092915050565b7f4e487b7100000000000000000000000000000000000000000000000000000000600052601160045260246000fd5b60006112f382610c3e565b91506112fe83610c3e565b9250828203905081811115611316576113156112b9565b5b92915050565b7f4e487b7100000000000000000000000000000000000000000000000000000000600052603260045260246000fd5b7f4e487b7100000000000000000000000000000000000000000000000000000000600052601260045260246000fd5b600061138582610c3e565b915061139083610c3e565b9250826113a05761139f61134b565b5b828206905092915050565b600081905092915050565b50565b60006113c66000836113ab565b91506113d1826113b6565b600082019050919050565b60006113e7826113b9565b9150819050919050565b6000819050919050565b600061141661141161140c84610efb565b6113f1565b610efb565b9050919050565b6000611428826113fb565b9050919050565b600061143a8261141d565b9050919050565b61144a8161142f565b82525050565b60006020820190506114656000830184611441565b9291505056fea2646970667358221220f41bf2d8e98584007516b3d5947dc053635d054d0f2da9c534065971cfe183a864736f6c63430008110033",
  "linkReferences": {},
  "deployedLinkReferences": {}
}